{
  "_format": "hh-sol-artifact-1",
  "contractName": "TokenICO",
  "sourceName": "contracts/TokenICO.sol",
  "abi": [
    {
      "inputs": [],
      "stateMutability": "nonpayable",
      "type": "constructor"
    },
    {
      "inputs": [],
      "name": "CannotResuceSaleToken",
      "type": "error"
    },
    {
      "inputs": [],
      "name": "InvalidAddress",
      "type": "error"
    },
    {
      "inputs": [],
      "name": "InvalidPrice",
      "type": "error"
    },
    {
      "inputs": [],
      "name": "NoEthSent",
      "type": "error"
    },
    {
      "inputs": [],
      "name": "NoTokenToWithdraw",
      "type": "error"
    },
    {
      "inputs": [],
      "name": "NoTokensToRescue",
      "type": "error"
    },
    {
      "inputs": [],
      "name": "OnlyOwner",
      "type": "error"
    },
    {
      "inputs": [],
      "name": "SaleTokenNotSet",
      "type": "error"
    },
    {
      "inputs": [],
      "name": "TokenTransferFailed",
      "type": "error"
    },
    {
      "inputs": [],
      "name": "UseTokenFuncation",
      "type": "error"
    },
    {
      "anonymous": false,
      "inputs": [
        {
          "indexed": false,
          "internalType": "uint256",
          "name": "oldPrice",
          "type": "uint256"
        },
        {
          "indexed": false,
          "internalType": "uint256",
          "name": "newPrice",
          "type": "uint256"
        }
      ],
      "name": "PriceUpdated",
      "type": "event"
    },
    {
      "anonymous": false,
      "inputs": [
        {
          "indexed": true,
          "internalType": "address",
          "name": "token",
          "type": "address"
        }
      ],
      "name": "SaleTokenSet",
      "type": "event"
    },
    {
      "anonymous": false,
      "inputs": [
        {
          "indexed": true,
          "internalType": "address",
          "name": "buyer",
          "type": "address"
        },
        {
          "indexed": false,
          "internalType": "uint256",
          "name": "amountPaid",
          "type": "uint256"
        },
        {
          "indexed": false,
          "internalType": "uint256",
          "name": "tokensBought",
          "type": "uint256"
        }
      ],
      "name": "TokensPurchased",
      "type": "event"
    },
    {
      "inputs": [],
      "name": "buyToken",
      "outputs": [],
      "stateMutability": "payable",
      "type": "function"
    },
    {
      "inputs": [],
      "name": "ethPriceForToken",
      "outputs": [
        {
          "internalType": "uint256",
          "name": "",
          "type": "uint256"
        }
      ],
      "stateMutability": "view",
      "type": "function"
    },
    {
      "inputs": [],
      "name": "getContractInfo",
      "outputs": [
        {
          "internalType": "address",
          "name": "tokenAddress",
          "type": "address"
        },
        {
          "internalType": "string",
          "name": "tokenSymbol",
          "type": "string"
        },
        {
          "internalType": "uint8",
          "name": "tokenDecimals",
          "type": "uint8"
        },
        {
          "internalType": "uint256",
          "name": "tokenBalance",
          "type": "uint256"
        },
        {
          "internalType": "uint256",
          "name": "tokenPrice",
          "type": "uint256"
        },
        {
          "internalType": "uint256",
          "name": "tokenSold",
          "type": "uint256"
        }
      ],
      "stateMutability": "view",
      "type": "function"
    },
    {
      "inputs": [],
      "name": "owner",
      "outputs": [
        {
          "internalType": "address",
          "name": "",
          "type": "address"
        }
      ],
      "stateMutability": "view",
      "type": "function"
    },
    {
      "inputs": [
        {
          "internalType": "address",
          "name": "tokenAddress",
          "type": "address"
        }
      ],
      "name": "rescueToken",
      "outputs": [],
      "stateMutability": "nonpayable",
      "type": "function"
    },
    {
      "inputs": [],
      "name": "saletoken",
      "outputs": [
        {
          "internalType": "address",
          "name": "",
          "type": "address"
        }
      ],
      "stateMutability": "view",
      "type": "function"
    },
    {
      "inputs": [
        {
          "internalType": "address",
          "name": "_token",
          "type": "address"
        }
      ],
      "name": "setSaleToken",
      "outputs": [],
      "stateMutability": "nonpayable",
      "type": "function"
    },
    {
      "inputs": [],
      "name": "tokensSold",
      "outputs": [
        {
          "internalType": "uint256",
          "name": "",
          "type": "uint256"
        }
      ],
      "stateMutability": "view",
      "type": "function"
    },
    {
      "inputs": [
        {
          "internalType": "uint256",
          "name": "newPrice",
          "type": "uint256"
        }
      ],
      "name": "updatetokenPrice",
      "outputs": [],
      "stateMutability": "nonpayable",
      "type": "function"
    },
    {
      "inputs": [],
      "name": "withdrawAllTokens",
      "outputs": [],
      "stateMutability": "nonpayable",
      "type": "function"
    },
    {
      "stateMutability": "payable",
      "type": "receive"
    }
  ],
  "bytecode": "0x60a080604052346100515766038d7ea4c68000600155336080526109d590816100578239608051818181610192015281816102f801528181610390015281816105c60152818161067b01526107e30152f35b600080fdfe608060408181526004918236101561002b575b50361561001e57600080fd5b51631d56ea1360e31b8152fd5b600090813560e01c90816310274fac146108ce57508063280da6fa146107ce5780634460d3cf1461064f57806346437626146105ae578063518ab2a81461058f5780637cc1f867146103bf5780638da5cb5b1461037b578063a29f481c146102cd578063a4821719146100c45763c605af53036100125790346100c057816003193601126100c0576020906001549051908152f35b5080fd5b509190826003193601126102c95734156102bc5782546001600160a01b031680156102ae57815163313ce56760e01b81526020939084818381865afa908115610251579060ff918791610281575b5016604d811161026e57600a0a803402903482040361026e5760015490811561025b5704918260025401600255848451809263a9059cbb60e01b825281898161017389338a840160209093929193604081019460018060a01b031681520152565b03925af1908115610251578691610224575b50156102115784808080347f00000000000000000000000000000000000000000000000000000000000000005af13d1561021f573d6101c381610983565b906101d086519283610915565b815286863d92013e5b156102115750907f8fafebcaf9d154343dad25669bfa277f4fbacd7ac6b0c4fed522580e040a0f33918151933485528401523392a280f35b825163022e258160e11b8152fd5b6101d9565b6102449150853d871161024a575b61023c8183610915565b81019061094d565b38610185565b503d610232565b84513d88823e3d90fd5b634e487b7160e01b875260128352602487fd5b634e487b7160e01b865260118252602486fd5b6102a19150863d88116102a7575b6102998183610915565b81019061096a565b38610112565b503d61028f565b505163a327f80560e01b8152fd5b5163717e6b7b60e01b8152fd5b8280fd5b5091346102c95760203660031901126102c95780356001600160a01b038181169391849003610377577f000000000000000000000000000000000000000000000000000000000000000016330361036a57821561035d57505081546001600160a01b031916811782557f3f8bb5f6e8ecfb5425a48c996d20089aff3396b3c168c13403c3fa3996f70a028280a280f35b5163e6c4247b60e01b8152fd5b51635fc483c560e01b8152fd5b8480fd5b5090346100c057816003193601126100c057517f00000000000000000000000000000000000000000000000000000000000000006001600160a01b03168152602090f35b509190346102c957826003193601126102c957825481516395d89b4160e01b81526001600160a01b039091169184828581865afa918215610585578592610507575b5080519063313ce56760e01b825260209485838281885afa9283156104de5787936104e8575b508151906370a0823160e01b825230908201528581602481885afa9081156104de5787916104a7575b5060e09596506001549160ff6002549461048583519a8b998a5260c0818b015288519889918260c08d01528c8c0191016108f2565b16908601526060850152608084015260a0830152601f01601f19168101030190f35b90508581813d83116104d7575b6104be8183610915565b810103126104d35760e0959650518695610450565b8680fd5b503d6104b4565b82513d89823e3d90fd5b610500919350863d88116102a7576102998183610915565b9138610427565b9091503d8086833e6105198183610915565b8101906020818303126105815780519067ffffffffffffffff82116104d3570181601f8201121561058157805161054f81610983565b9261055c85519485610915565b818452602082840101116104d35761057a91602080850191016108f2565b9038610401565b8580fd5b81513d87823e3d90fd5b5090346100c057816003193601126100c0576020906002549051908152f35b5091346102c95760203660031901126102c9578035907f00000000000000000000000000000000000000000000000000000000000000006001600160a01b031633036106415781156106345750907f945c1c4e99aa89f648fbfe3df471b916f719e16d960fcec0737d4d56bd69683891600154908060015582519182526020820152a180f35b825162bfc92160e01b8152fd5b8251635fc483c560e01b8152fd5b509190346102c9576020806003193601126107ca576001600160a01b03833581811690819003610581577f00000000000000000000000000000000000000000000000000000000000000009180831633036107ba5786541681146107aa5783516370a0823160e01b81523086820152918383602481855afa9283156107a0578793610771575b50821561076157845163a9059cbb60e01b81526001600160a01b03909116868201908152602081019390935291839183918290899082906040015b03925af191821561075757859261073a575b50501561072d578280f35b5163022e258160e11b8152fd5b6107509250803d1061024a5761023c8183610915565b3880610722565b83513d87823e3d90fd5b84516362f3ba9760e01b81528690fd5b9092508381813d8311610799575b6107898183610915565b810103126104d3575191386106d5565b503d61077f565b85513d89823e3d90fd5b50505051635e0c1bd560e11b8152fd5b8451635fc483c560e01b81528690fd5b8380fd5b509190346102c957826003193601126102c9577f00000000000000000000000000000000000000000000000000000000000000006001600160a01b0380821633036108bf578454168251906370a0823160e01b825230858301526020928383602481855afa9283156107a0578793610890575b50821561088057845163a9059cbb60e01b81526001600160a01b0390911686820190815260208101939093529183918391829089908290604001610710565b8451631888cc1360e21b81528690fd5b9092508381813d83116108b8575b6108a88183610915565b810103126104d357519138610841565b503d61089e565b505051635fc483c560e01b8152fd5b9050346100c057816003193601126100c05790546001600160a01b03168152602090f35b60005b8381106109055750506000910152565b81810151838201526020016108f5565b90601f8019910116810190811067ffffffffffffffff82111761093757604052565b634e487b7160e01b600052604160045260246000fd5b90816020910312610965575180151581036109655790565b600080fd5b90816020910312610965575160ff811681036109655790565b67ffffffffffffffff811161093757601f01601f19166020019056fea2646970667358221220fa688c874dc1450b2a27b85e74ef525913cdd911f591923f0e5f496eee25a1a064736f6c63430008130033",
  "linkReferences": {},
  "deployedLinkReferences": {}
}