{"contracts/TokenICO.sol":{"TokenICO":{"abi":[{"inputs":[],"stateMutability":"nonpayable","type":"constructor"},{"inputs":[],"name":"CannotResuceSaleToken","type":"error"},{"inputs":[],"name":"InvalidAddress","type":"error"},{"inputs":[],"name":"InvalidPrice","type":"error"},{"inputs":[],"name":"NoEthSent","type":"error"},{"inputs":[],"name":"NoTokenToWithdraw","type":"error"},{"inputs":[],"name":"NoTokensToRescue","type":"error"},{"inputs":[],"name":"OnlyOwner","type":"error"},{"inputs":[],"name":"SaleTokenNotSet","type":"error"},{"inputs":[],"name":"TokenTransferFailed","type":"error"},{"inputs":[],"name":"UseTokenFuncation","type":"error"},{"anonymous":false,"inputs":[{"indexed":false,"internalType":"uint256","name":"oldPrice","type":"uint256"},{"indexed":false,"internalType":"uint256","name":"newPrice","type":"uint256"}],"name":"PriceUpdated","type":"event"},{"anonymous":false,"inputs":[{"indexed":true,"internalType":"address","name":"token","type":"address"}],"name":"SaleTokenSet","type":"event"},{"anonymous":false,"inputs":[{"indexed":true,"internalType":"address","name":"buyer","type":"address"},{"indexed":false,"internalType":"uint256","name":"amountPaid","type":"uint256"},{"indexed":false,"internalType":"uint256","name":"tokensBought","type":"uint256"}],"name":"TokensPurchased","type":"event"},{"inputs":[],"name":"buyToken","outputs":[],"stateMutability":"payable","type":"function"},{"inputs":[],"name":"ethPriceForToken","outputs":[{"internalType":"uint256","name":"","type":"uint256"}],"stateMutability":"view","type":"function"},{"inputs":[],"name":"getContractInfo","outputs":[{"internalType":"address","name":"tokenAddress","type":"address"},{"internalType":"string","name":"tokenSymbol","type":"string"},{"internalType":"uint8","name":"tokenDecimals","type":"uint8"},{"internalType":"uint256","name":"tokenBalance","type":"uint256"},{"internalType":"uint256","name":"tokenPrice","type":"uint256"},{"internalType":"uint256","name":"tokenSold","type":"uint256"}],"stateMutability":"view","type":"function"},{"inputs":[],"name":"owner","outputs":[{"internalType":"address","name":"","type":"address"}],"stateMutability":"view","type":"function"},{"inputs":[{"internalType":"address","name":"tokenAddress","type":"address"}],"name":"rescueToken","outputs":[],"stateMutability":"nonpayable","type":"function"},{"inputs":[],"name":"saletoken","outputs":[{"internalType":"address","name":"","type":"address"}],"stateMutability":"view","type":"function"},{"inputs":[{"internalType":"address","name":"_token","type":"address"}],"name":"setSaleToken","outputs":[],"stateMutability":"nonpayable","type":"function"},{"inputs":[],"name":"tokensSold","outputs":[{"internalType":"uint256","name":"","type":"uint256"}],"stateMutability":"view","type":"function"},{"inputs":[{"internalType":"uint256","name":"newPrice","type":"uint256"}],"name":"updatetokenPrice","outputs":[],"stateMutability":"nonpayable","type":"function"},{"inputs":[],"name":"withdrawAllTokens","outputs":[],"stateMutability":"nonpayable","type":"function"},{"stateMutability":"payable","type":"receive"}],"devdoc":{"kind":"dev","methods":{},"version":1},"evm":{"bytecode":{"linkReferences":{},"object":"60a080604052346100515766038d7ea4c68000600155336080526109d590816100578239608051818181610192015281816102f801528181610390015281816105c60152818161067b01526107e30152f35b600080fdfe608060408181526004918236101561002b575b50361561001e57600080fd5b51631d56ea1360e31b8152fd5b600090813560e01c90816310274fac146108ce57508063280da6fa146107ce5780634460d3cf1461064f57806346437626146105ae578063518ab2a81461058f5780637cc1f867146103bf5780638da5cb5b1461037b578063a29f481c146102cd578063a4821719146100c45763c605af53036100125790346100c057816003193601126100c0576020906001549051908152f35b5080fd5b509190826003193601126102c95734156102bc5782546001600160a01b031680156102ae57815163313ce56760e01b81526020939084818381865afa908115610251579060ff918791610281575b5016604d811161026e57600a0a803402903482040361026e5760015490811561025b5704918260025401600255848451809263a9059cbb60e01b825281898161017389338a840160209093929193604081019460018060a01b031681520152565b03925af1908115610251578691610224575b50156102115784808080347f00000000000000000000000000000000000000000000000000000000000000005af13d1561021f573d6101c381610983565b906101d086519283610915565b815286863d92013e5b156102115750907f8fafebcaf9d154343dad25669bfa277f4fbacd7ac6b0c4fed522580e040a0f33918151933485528401523392a280f35b825163022e258160e11b8152fd5b6101d9565b6102449150853d871161024a575b61023c8183610915565b81019061094d565b38610185565b503d610232565b84513d88823e3d90fd5b634e487b7160e01b875260128352602487fd5b634e487b7160e01b865260118252602486fd5b6102a19150863d88116102a7575b6102998183610915565b81019061096a565b38610112565b503d61028f565b505163a327f80560e01b8152fd5b5163717e6b7b60e01b8152fd5b8280fd5b5091346102c95760203660031901126102c95780356001600160a01b038181169391849003610377577f000000000000000000000000000000000000000000000000000000000000000016330361036a57821561035d57505081546001600160a01b031916811782557f3f8bb5f6e8ecfb5425a48c996d20089aff3396b3c168c13403c3fa3996f70a028280a280f35b5163e6c4247b60e01b8152fd5b51635fc483c560e01b8152fd5b8480fd5b5090346100c057816003193601126100c057517f00000000000000000000000000000000000000000000000000000000000000006001600160a01b03168152602090f35b509190346102c957826003193601126102c957825481516395d89b4160e01b81526001600160a01b039091169184828581865afa918215610585578592610507575b5080519063313ce56760e01b825260209485838281885afa9283156104de5787936104e8575b508151906370a0823160e01b825230908201528581602481885afa9081156104de5787916104a7575b5060e09596506001549160ff6002549461048583519a8b998a5260c0818b015288519889918260c08d01528c8c0191016108f2565b16908601526060850152608084015260a0830152601f01601f19168101030190f35b90508581813d83116104d7575b6104be8183610915565b810103126104d35760e0959650518695610450565b8680fd5b503d6104b4565b82513d89823e3d90fd5b610500919350863d88116102a7576102998183610915565b9138610427565b9091503d8086833e6105198183610915565b8101906020818303126105815780519067ffffffffffffffff82116104d3570181601f8201121561058157805161054f81610983565b9261055c85519485610915565b818452602082840101116104d35761057a91602080850191016108f2565b9038610401565b8580fd5b81513d87823e3d90fd5b5090346100c057816003193601126100c0576020906002549051908152f35b5091346102c95760203660031901126102c9578035907f00000000000000000000000000000000000000000000000000000000000000006001600160a01b031633036106415781156106345750907f945c1c4e99aa89f648fbfe3df471b916f719e16d960fcec0737d4d56bd69683891600154908060015582519182526020820152a180f35b825162bfc92160e01b8152fd5b8251635fc483c560e01b8152fd5b509190346102c9576020806003193601126107ca576001600160a01b03833581811690819003610581577f00000000000000000000000000000000000000000000000000000000000000009180831633036107ba5786541681146107aa5783516370a0823160e01b81523086820152918383602481855afa9283156107a0578793610771575b50821561076157845163a9059cbb60e01b81526001600160a01b03909116868201908152602081019390935291839183918290899082906040015b03925af191821561075757859261073a575b50501561072d578280f35b5163022e258160e11b8152fd5b6107509250803d1061024a5761023c8183610915565b3880610722565b83513d87823e3d90fd5b84516362f3ba9760e01b81528690fd5b9092508381813d8311610799575b6107898183610915565b810103126104d3575191386106d5565b503d61077f565b85513d89823e3d90fd5b50505051635e0c1bd560e11b8152fd5b8451635fc483c560e01b81528690fd5b8380fd5b509190346102c957826003193601126102c9577f00000000000000000000000000000000000000000000000000000000000000006001600160a01b0380821633036108bf578454168251906370a0823160e01b825230858301526020928383602481855afa9283156107a0578793610890575b50821561088057845163a9059cbb60e01b81526001600160a01b0390911686820190815260208101939093529183918391829089908290604001610710565b8451631888cc1360e21b81528690fd5b9092508381813d83116108b8575b6108a88183610915565b810103126104d357519138610841565b503d61089e565b505051635fc483c560e01b8152fd5b9050346100c057816003193601126100c05790546001600160a01b03168152602090f35b60005b8381106109055750506000910152565b81810151838201526020016108f5565b90601f8019910116810190811067ffffffffffffffff82111761093757604052565b634e487b7160e01b600052604160045260246000fd5b90816020910312610965575180151581036109655790565b600080fd5b90816020910312610965575160ff811681036109655790565b67ffffffffffffffff811161093757601f01601f19166020019056fea2646970667358221220fa688c874dc1450b2a27b85e74ef525913cdd911f591923f0e5f496eee25a1a064736f6c63430008130033","opcodes":"PUSH1 0xA0 DUP1 PUSH1 0x40 MSTORE CALLVALUE PUSH2 0x51 JUMPI PUSH7 0x38D7EA4C68000 PUSH1 0x1 SSTORE CALLER PUSH1 0x80 MSTORE PUSH2 0x9D5 SWAP1 DUP2 PUSH2 0x57 DUP3 CODECOPY PUSH1 0x80 MLOAD DUP2 DUP2 DUP2 PUSH2 0x192 ADD MSTORE DUP2 DUP2 PUSH2 0x2F8 ADD MSTORE DUP2 DUP2 PUSH2 0x390 ADD MSTORE DUP2 DUP2 PUSH2 0x5C6 ADD MSTORE DUP2 DUP2 PUSH2 0x67B ADD MSTORE PUSH2 0x7E3 ADD MSTORE RETURN JUMPDEST PUSH1 0x0 DUP1 REVERT INVALID PUSH1 0x80 PUSH1 0x40 DUP2 DUP2 MSTORE PUSH1 0x4 SWAP2 DUP3 CALLDATASIZE LT ISZERO PUSH2 0x2B JUMPI JUMPDEST POP CALLDATASIZE ISZERO PUSH2 0x1E JUMPI PUSH1 0x0 DUP1 REVERT JUMPDEST MLOAD PUSH4 0x1D56EA13 PUSH1 0xE3 SHL DUP2 MSTORE REVERT JUMPDEST PUSH1 0x0 SWAP1 DUP2 CALLDATALOAD PUSH1 0xE0 SHR SWAP1 DUP2 PUSH4 0x10274FAC EQ PUSH2 0x8CE JUMPI POP DUP1 PUSH4 0x280DA6FA EQ PUSH2 0x7CE JUMPI DUP1 PUSH4 0x4460D3CF EQ PUSH2 0x64F JUMPI DUP1 PUSH4 0x46437626 EQ PUSH2 0x5AE JUMPI DUP1 PUSH4 0x518AB2A8 EQ PUSH2 0x58F JUMPI DUP1 PUSH4 0x7CC1F867 EQ PUSH2 0x3BF JUMPI DUP1 PUSH4 0x8DA5CB5B EQ PUSH2 0x37B JUMPI DUP1 PUSH4 0xA29F481C EQ PUSH2 0x2CD JUMPI DUP1 PUSH4 0xA4821719 EQ PUSH2 0xC4 JUMPI PUSH4 0xC605AF53 SUB PUSH2 0x12 JUMPI SWAP1 CALLVALUE PUSH2 0xC0 JUMPI DUP2 PUSH1 0x3 NOT CALLDATASIZE ADD SLT PUSH2 0xC0 JUMPI PUSH1 0x20 SWAP1 PUSH1 0x1 SLOAD SWAP1 MLOAD SWAP1 DUP2 MSTORE RETURN JUMPDEST POP DUP1 REVERT JUMPDEST POP SWAP2 SWAP1 DUP3 PUSH1 0x3 NOT CALLDATASIZE ADD SLT PUSH2 0x2C9 JUMPI CALLVALUE ISZERO PUSH2 0x2BC JUMPI DUP3 SLOAD PUSH1 0x1 PUSH1 0x1 PUSH1 0xA0 SHL SUB AND DUP1 ISZERO PUSH2 0x2AE JUMPI DUP2 MLOAD PUSH4 0x313CE567 PUSH1 0xE0 SHL DUP2 MSTORE PUSH1 0x20 SWAP4 SWAP1 DUP5 DUP2 DUP4 DUP2 DUP7 GAS STATICCALL SWAP1 DUP2 ISZERO PUSH2 0x251 JUMPI SWAP1 PUSH1 0xFF SWAP2 DUP8 SWAP2 PUSH2 0x281 JUMPI JUMPDEST POP AND PUSH1 0x4D DUP2 GT PUSH2 0x26E JUMPI PUSH1 0xA EXP DUP1 CALLVALUE MUL SWAP1 CALLVALUE DUP3 DIV SUB PUSH2 0x26E JUMPI PUSH1 0x1 SLOAD SWAP1 DUP2 ISZERO PUSH2 0x25B JUMPI DIV SWAP2 DUP3 PUSH1 0x2 SLOAD ADD PUSH1 0x2 SSTORE DUP5 DUP5 MLOAD DUP1 SWAP3 PUSH4 0xA9059CBB PUSH1 0xE0 SHL DUP3 MSTORE DUP2 DUP10 DUP2 PUSH2 0x173 DUP10 CALLER DUP11 DUP5 ADD PUSH1 0x20 SWAP1 SWAP4 SWAP3 SWAP2 SWAP4 PUSH1 0x40 DUP2 ADD SWAP5 PUSH1 0x1 DUP1 PUSH1 0xA0 SHL SUB AND DUP2 MSTORE ADD MSTORE JUMP JUMPDEST SUB SWAP3 GAS CALL SWAP1 DUP2 ISZERO PUSH2 0x251 JUMPI DUP7 SWAP2 PUSH2 0x224 JUMPI JUMPDEST POP ISZERO PUSH2 0x211 JUMPI DUP5 DUP1 DUP1 DUP1 CALLVALUE PUSH32 0x0 GAS CALL RETURNDATASIZE ISZERO PUSH2 0x21F JUMPI RETURNDATASIZE PUSH2 0x1C3 DUP2 PUSH2 0x983 JUMP JUMPDEST SWAP1 PUSH2 0x1D0 DUP7 MLOAD SWAP3 DUP4 PUSH2 0x915 JUMP JUMPDEST DUP2 MSTORE DUP7 DUP7 RETURNDATASIZE SWAP3 ADD RETURNDATACOPY JUMPDEST ISZERO PUSH2 0x211 JUMPI POP SWAP1 PUSH32 0x8FAFEBCAF9D154343DAD25669BFA277F4FBACD7AC6B0C4FED522580E040A0F33 SWAP2 DUP2 MLOAD SWAP4 CALLVALUE DUP6 MSTORE DUP5 ADD MSTORE CALLER SWAP3 LOG2 DUP1 RETURN JUMPDEST DUP3 MLOAD PUSH4 0x22E2581 PUSH1 0xE1 SHL DUP2 MSTORE REVERT JUMPDEST PUSH2 0x1D9 JUMP JUMPDEST PUSH2 0x244 SWAP2 POP DUP6 RETURNDATASIZE DUP8 GT PUSH2 0x24A JUMPI JUMPDEST PUSH2 0x23C DUP2 DUP4 PUSH2 0x915 JUMP JUMPDEST DUP2 ADD SWAP1 PUSH2 0x94D JUMP JUMPDEST CODESIZE PUSH2 0x185 JUMP JUMPDEST POP RETURNDATASIZE PUSH2 0x232 JUMP JUMPDEST DUP5 MLOAD RETURNDATASIZE DUP9 DUP3 RETURNDATACOPY RETURNDATASIZE SWAP1 REVERT JUMPDEST PUSH4 0x4E487B71 PUSH1 0xE0 SHL DUP8 MSTORE PUSH1 0x12 DUP4 MSTORE PUSH1 0x24 DUP8 REVERT JUMPDEST PUSH4 0x4E487B71 PUSH1 0xE0 SHL DUP7 MSTORE PUSH1 0x11 DUP3 MSTORE PUSH1 0x24 DUP7 REVERT JUMPDEST PUSH2 0x2A1 SWAP2 POP DUP7 RETURNDATASIZE DUP9 GT PUSH2 0x2A7 JUMPI JUMPDEST PUSH2 0x299 DUP2 DUP4 PUSH2 0x915 JUMP JUMPDEST DUP2 ADD SWAP1 PUSH2 0x96A JUMP JUMPDEST CODESIZE PUSH2 0x112 JUMP JUMPDEST POP RETURNDATASIZE PUSH2 0x28F JUMP JUMPDEST POP MLOAD PUSH4 0xA327F805 PUSH1 0xE0 SHL DUP2 MSTORE REVERT JUMPDEST MLOAD PUSH4 0x717E6B7B PUSH1 0xE0 SHL DUP2 MSTORE REVERT JUMPDEST DUP3 DUP1 REVERT JUMPDEST POP SWAP2 CALLVALUE PUSH2 0x2C9 JUMPI PUSH1 0x20 CALLDATASIZE PUSH1 0x3 NOT ADD SLT PUSH2 0x2C9 JUMPI DUP1 CALLDATALOAD PUSH1 0x1 PUSH1 0x1 PUSH1 0xA0 SHL SUB DUP2 DUP2 AND SWAP4 SWAP2 DUP5 SWAP1 SUB PUSH2 0x377 JUMPI PUSH32 0x0 AND CALLER SUB PUSH2 0x36A JUMPI DUP3 ISZERO PUSH2 0x35D JUMPI POP POP DUP2 SLOAD PUSH1 0x1 PUSH1 0x1 PUSH1 0xA0 SHL SUB NOT AND DUP2 OR DUP3 SSTORE PUSH32 0x3F8BB5F6E8ECFB5425A48C996D20089AFF3396B3C168C13403C3FA3996F70A02 DUP3 DUP1 LOG2 DUP1 RETURN JUMPDEST MLOAD PUSH4 0xE6C4247B PUSH1 0xE0 SHL DUP2 MSTORE REVERT JUMPDEST MLOAD PUSH4 0x5FC483C5 PUSH1 0xE0 SHL DUP2 MSTORE REVERT JUMPDEST DUP5 DUP1 REVERT JUMPDEST POP SWAP1 CALLVALUE PUSH2 0xC0 JUMPI DUP2 PUSH1 0x3 NOT CALLDATASIZE ADD SLT PUSH2 0xC0 JUMPI MLOAD PUSH32 0x0 PUSH1 0x1 PUSH1 0x1 PUSH1 0xA0 SHL SUB AND DUP2 MSTORE PUSH1 0x20 SWAP1 RETURN JUMPDEST POP SWAP2 SWAP1 CALLVALUE PUSH2 0x2C9 JUMPI DUP3 PUSH1 0x3 NOT CALLDATASIZE ADD SLT PUSH2 0x2C9 JUMPI DUP3 SLOAD DUP2 MLOAD PUSH4 0x95D89B41 PUSH1 0xE0 SHL DUP2 MSTORE PUSH1 0x1 PUSH1 0x1 PUSH1 0xA0 SHL SUB SWAP1 SWAP2 AND SWAP2 DUP5 DUP3 DUP6 DUP2 DUP7 GAS STATICCALL SWAP2 DUP3 ISZERO PUSH2 0x585 JUMPI DUP6 SWAP3 PUSH2 0x507 JUMPI JUMPDEST POP DUP1 MLOAD SWAP1 PUSH4 0x313CE567 PUSH1 0xE0 SHL DUP3 MSTORE PUSH1 0x20 SWAP5 DUP6 DUP4 DUP3 DUP2 DUP9 GAS STATICCALL SWAP3 DUP4 ISZERO PUSH2 0x4DE JUMPI DUP8 SWAP4 PUSH2 0x4E8 JUMPI JUMPDEST POP DUP2 MLOAD SWAP1 PUSH4 0x70A08231 PUSH1 0xE0 SHL DUP3 MSTORE ADDRESS SWAP1 DUP3 ADD MSTORE DUP6 DUP2 PUSH1 0x24 DUP2 DUP9 GAS STATICCALL SWAP1 DUP2 ISZERO PUSH2 0x4DE JUMPI DUP8 SWAP2 PUSH2 0x4A7 JUMPI JUMPDEST POP PUSH1 0xE0 SWAP6 SWAP7 POP PUSH1 0x1 SLOAD SWAP2 PUSH1 0xFF PUSH1 0x2 SLOAD SWAP5 PUSH2 0x485 DUP4 MLOAD SWAP11 DUP12 SWAP10 DUP11 MSTORE PUSH1 0xC0 DUP2 DUP12 ADD MSTORE DUP9 MLOAD SWAP9 DUP10 SWAP2 DUP3 PUSH1 0xC0 DUP14 ADD MSTORE DUP13 DUP13 ADD SWAP2 ADD PUSH2 0x8F2 JUMP JUMPDEST AND SWAP1 DUP7 ADD MSTORE PUSH1 0x60 DUP6 ADD MSTORE PUSH1 0x80 DUP5 ADD MSTORE PUSH1 0xA0 DUP4 ADD MSTORE PUSH1 0x1F ADD PUSH1 0x1F NOT AND DUP2 ADD SUB ADD SWAP1 RETURN JUMPDEST SWAP1 POP DUP6 DUP2 DUP2 RETURNDATASIZE DUP4 GT PUSH2 0x4D7 JUMPI JUMPDEST PUSH2 0x4BE DUP2 DUP4 PUSH2 0x915 JUMP JUMPDEST DUP2 ADD SUB SLT PUSH2 0x4D3 JUMPI PUSH1 0xE0 SWAP6 SWAP7 POP MLOAD DUP7 SWAP6 PUSH2 0x450 JUMP JUMPDEST DUP7 DUP1 REVERT JUMPDEST POP RETURNDATASIZE PUSH2 0x4B4 JUMP JUMPDEST DUP3 MLOAD RETURNDATASIZE DUP10 DUP3 RETURNDATACOPY RETURNDATASIZE SWAP1 REVERT JUMPDEST PUSH2 0x500 SWAP2 SWAP4 POP DUP7 RETURNDATASIZE DUP9 GT PUSH2 0x2A7 JUMPI PUSH2 0x299 DUP2 DUP4 PUSH2 0x915 JUMP JUMPDEST SWAP2 CODESIZE PUSH2 0x427 JUMP JUMPDEST SWAP1 SWAP2 POP RETURNDATASIZE DUP1 DUP7 DUP4 RETURNDATACOPY PUSH2 0x519 DUP2 DUP4 PUSH2 0x915 JUMP JUMPDEST DUP2 ADD SWAP1 PUSH1 0x20 DUP2 DUP4 SUB SLT PUSH2 0x581 JUMPI DUP1 MLOAD SWAP1 PUSH8 0xFFFFFFFFFFFFFFFF DUP3 GT PUSH2 0x4D3 JUMPI ADD DUP2 PUSH1 0x1F DUP3 ADD SLT ISZERO PUSH2 0x581 JUMPI DUP1 MLOAD PUSH2 0x54F DUP2 PUSH2 0x983 JUMP JUMPDEST SWAP3 PUSH2 0x55C DUP6 MLOAD SWAP5 DUP6 PUSH2 0x915 JUMP JUMPDEST DUP2 DUP5 MSTORE PUSH1 0x20 DUP3 DUP5 ADD ADD GT PUSH2 0x4D3 JUMPI PUSH2 0x57A SWAP2 PUSH1 0x20 DUP1 DUP6 ADD SWAP2 ADD PUSH2 0x8F2 JUMP JUMPDEST SWAP1 CODESIZE PUSH2 0x401 JUMP JUMPDEST DUP6 DUP1 REVERT JUMPDEST DUP2 MLOAD RETURNDATASIZE DUP8 DUP3 RETURNDATACOPY RETURNDATASIZE SWAP1 REVERT JUMPDEST POP SWAP1 CALLVALUE PUSH2 0xC0 JUMPI DUP2 PUSH1 0x3 NOT CALLDATASIZE ADD SLT PUSH2 0xC0 JUMPI PUSH1 0x20 SWAP1 PUSH1 0x2 SLOAD SWAP1 MLOAD SWAP1 DUP2 MSTORE RETURN JUMPDEST POP SWAP2 CALLVALUE PUSH2 0x2C9 JUMPI PUSH1 0x20 CALLDATASIZE PUSH1 0x3 NOT ADD SLT PUSH2 0x2C9 JUMPI DUP1 CALLDATALOAD SWAP1 PUSH32 0x0 PUSH1 0x1 PUSH1 0x1 PUSH1 0xA0 SHL SUB AND CALLER SUB PUSH2 0x641 JUMPI DUP2 ISZERO PUSH2 0x634 JUMPI POP SWAP1 PUSH32 0x945C1C4E99AA89F648FBFE3DF471B916F719E16D960FCEC0737D4D56BD696838 SWAP2 PUSH1 0x1 SLOAD SWAP1 DUP1 PUSH1 0x1 SSTORE DUP3 MLOAD SWAP2 DUP3 MSTORE PUSH1 0x20 DUP3 ADD MSTORE LOG1 DUP1 RETURN JUMPDEST DUP3 MLOAD PUSH3 0xBFC921 PUSH1 0xE0 SHL DUP2 MSTORE REVERT JUMPDEST DUP3 MLOAD PUSH4 0x5FC483C5 PUSH1 0xE0 SHL DUP2 MSTORE REVERT JUMPDEST POP SWAP2 SWAP1 CALLVALUE PUSH2 0x2C9 JUMPI PUSH1 0x20 DUP1 PUSH1 0x3 NOT CALLDATASIZE ADD SLT PUSH2 0x7CA JUMPI PUSH1 0x1 PUSH1 0x1 PUSH1 0xA0 SHL SUB DUP4 CALLDATALOAD DUP2 DUP2 AND SWAP1 DUP2 SWAP1 SUB PUSH2 0x581 JUMPI PUSH32 0x0 SWAP2 DUP1 DUP4 AND CALLER SUB PUSH2 0x7BA JUMPI DUP7 SLOAD AND DUP2 EQ PUSH2 0x7AA JUMPI DUP4 MLOAD PUSH4 0x70A08231 PUSH1 0xE0 SHL DUP2 MSTORE ADDRESS DUP7 DUP3 ADD MSTORE SWAP2 DUP4 DUP4 PUSH1 0x24 DUP2 DUP6 GAS STATICCALL SWAP3 DUP4 ISZERO PUSH2 0x7A0 JUMPI DUP8 SWAP4 PUSH2 0x771 JUMPI JUMPDEST POP DUP3 ISZERO PUSH2 0x761 JUMPI DUP5 MLOAD PUSH4 0xA9059CBB PUSH1 0xE0 SHL DUP2 MSTORE PUSH1 0x1 PUSH1 0x1 PUSH1 0xA0 SHL SUB SWAP1 SWAP2 AND DUP7 DUP3 ADD SWAP1 DUP2 MSTORE PUSH1 0x20 DUP2 ADD SWAP4 SWAP1 SWAP4 MSTORE SWAP2 DUP4 SWAP2 DUP4 SWAP2 DUP3 SWAP1 DUP10 SWAP1 DUP3 SWAP1 PUSH1 0x40 ADD JUMPDEST SUB SWAP3 GAS CALL SWAP2 DUP3 ISZERO PUSH2 0x757 JUMPI DUP6 SWAP3 PUSH2 0x73A JUMPI JUMPDEST POP POP ISZERO PUSH2 0x72D JUMPI DUP3 DUP1 RETURN JUMPDEST MLOAD PUSH4 0x22E2581 PUSH1 0xE1 SHL DUP2 MSTORE REVERT JUMPDEST PUSH2 0x750 SWAP3 POP DUP1 RETURNDATASIZE LT PUSH2 0x24A JUMPI PUSH2 0x23C DUP2 DUP4 PUSH2 0x915 JUMP JUMPDEST CODESIZE DUP1 PUSH2 0x722 JUMP JUMPDEST DUP4 MLOAD RETURNDATASIZE DUP8 DUP3 RETURNDATACOPY RETURNDATASIZE SWAP1 REVERT JUMPDEST DUP5 MLOAD PUSH4 0x62F3BA97 PUSH1 0xE0 SHL DUP2 MSTORE DUP7 SWAP1 REVERT JUMPDEST SWAP1 SWAP3 POP DUP4 DUP2 DUP2 RETURNDATASIZE DUP4 GT PUSH2 0x799 JUMPI JUMPDEST PUSH2 0x789 DUP2 DUP4 PUSH2 0x915 JUMP JUMPDEST DUP2 ADD SUB SLT PUSH2 0x4D3 JUMPI MLOAD SWAP2 CODESIZE PUSH2 0x6D5 JUMP JUMPDEST POP RETURNDATASIZE PUSH2 0x77F JUMP JUMPDEST DUP6 MLOAD RETURNDATASIZE DUP10 DUP3 RETURNDATACOPY RETURNDATASIZE SWAP1 REVERT JUMPDEST POP POP POP MLOAD PUSH4 0x5E0C1BD5 PUSH1 0xE1 SHL DUP2 MSTORE REVERT JUMPDEST DUP5 MLOAD PUSH4 0x5FC483C5 PUSH1 0xE0 SHL DUP2 MSTORE DUP7 SWAP1 REVERT JUMPDEST DUP4 DUP1 REVERT JUMPDEST POP SWAP2 SWAP1 CALLVALUE PUSH2 0x2C9 JUMPI DUP3 PUSH1 0x3 NOT CALLDATASIZE ADD SLT PUSH2 0x2C9 JUMPI PUSH32 0x0 PUSH1 0x1 PUSH1 0x1 PUSH1 0xA0 SHL SUB DUP1 DUP3 AND CALLER SUB PUSH2 0x8BF JUMPI DUP5 SLOAD AND DUP3 MLOAD SWAP1 PUSH4 0x70A08231 PUSH1 0xE0 SHL DUP3 MSTORE ADDRESS DUP6 DUP4 ADD MSTORE PUSH1 0x20 SWAP3 DUP4 DUP4 PUSH1 0x24 DUP2 DUP6 GAS STATICCALL SWAP3 DUP4 ISZERO PUSH2 0x7A0 JUMPI DUP8 SWAP4 PUSH2 0x890 JUMPI JUMPDEST POP DUP3 ISZERO PUSH2 0x880 JUMPI DUP5 MLOAD PUSH4 0xA9059CBB PUSH1 0xE0 SHL DUP2 MSTORE PUSH1 0x1 PUSH1 0x1 PUSH1 0xA0 SHL SUB SWAP1 SWAP2 AND DUP7 DUP3 ADD SWAP1 DUP2 MSTORE PUSH1 0x20 DUP2 ADD SWAP4 SWAP1 SWAP4 MSTORE SWAP2 DUP4 SWAP2 DUP4 SWAP2 DUP3 SWAP1 DUP10 SWAP1 DUP3 SWAP1 PUSH1 0x40 ADD PUSH2 0x710 JUMP JUMPDEST DUP5 MLOAD PUSH4 0x1888CC13 PUSH1 0xE2 SHL DUP2 MSTORE DUP7 SWAP1 REVERT JUMPDEST SWAP1 SWAP3 POP DUP4 DUP2 DUP2 RETURNDATASIZE DUP4 GT PUSH2 0x8B8 JUMPI JUMPDEST PUSH2 0x8A8 DUP2 DUP4 PUSH2 0x915 JUMP JUMPDEST DUP2 ADD SUB SLT PUSH2 0x4D3 JUMPI MLOAD SWAP2 CODESIZE PUSH2 0x841 JUMP JUMPDEST POP RETURNDATASIZE PUSH2 0x89E JUMP JUMPDEST POP POP MLOAD PUSH4 0x5FC483C5 PUSH1 0xE0 SHL DUP2 MSTORE REVERT JUMPDEST SWAP1 POP CALLVALUE PUSH2 0xC0 JUMPI DUP2 PUSH1 0x3 NOT CALLDATASIZE ADD SLT PUSH2 0xC0 JUMPI SWAP1 SLOAD PUSH1 0x1 PUSH1 0x1 PUSH1 0xA0 SHL SUB AND DUP2 MSTORE PUSH1 0x20 SWAP1 RETURN JUMPDEST PUSH1 0x0 JUMPDEST DUP4 DUP2 LT PUSH2 0x905 JUMPI POP POP PUSH1 0x0 SWAP2 ADD MSTORE JUMP JUMPDEST DUP2 DUP2 ADD MLOAD DUP4 DUP3 ADD MSTORE PUSH1 0x20 ADD PUSH2 0x8F5 JUMP JUMPDEST SWAP1 PUSH1 0x1F DUP1 NOT SWAP2 ADD AND DUP2 ADD SWAP1 DUP2 LT PUSH8 0xFFFFFFFFFFFFFFFF DUP3 GT OR PUSH2 0x937 JUMPI PUSH1 0x40 MSTORE JUMP JUMPDEST PUSH4 0x4E487B71 PUSH1 0xE0 SHL PUSH1 0x0 MSTORE PUSH1 0x41 PUSH1 0x4 MSTORE PUSH1 0x24 PUSH1 0x0 REVERT JUMPDEST SWAP1 DUP2 PUSH1 0x20 SWAP2 SUB SLT PUSH2 0x965 JUMPI MLOAD DUP1 ISZERO ISZERO DUP2 SUB PUSH2 0x965 JUMPI SWAP1 JUMP JUMPDEST PUSH1 0x0 DUP1 REVERT JUMPDEST SWAP1 DUP2 PUSH1 0x20 SWAP2 SUB SLT PUSH2 0x965 JUMPI MLOAD PUSH1 0xFF DUP2 AND DUP2 SUB PUSH2 0x965 JUMPI SWAP1 JUMP JUMPDEST PUSH8 0xFFFFFFFFFFFFFFFF DUP2 GT PUSH2 0x937 JUMPI PUSH1 0x1F ADD PUSH1 0x1F NOT AND PUSH1 0x20 ADD SWAP1 JUMP INVALID LOG2 PUSH5 0x6970667358 0x22 SLT KECCAK256 STATICCALL PUSH9 0x8C874DC1450B2A27B8 0x5E PUSH21 0xEF525913CDD911F591923F0E5F496EEE25A1A06473 PUSH16 0x6C634300081300330000000000000000 "},"gasEstimates":{"creation":{"codeDepositCost":"503400","executionCost":"infinite","totalCost":"infinite"},"external":{"buyToken()":"infinite","ethPriceForToken()":"2473","getContractInfo()":"infinite","owner()":"infinite","rescueToken(address)":"infinite","saletoken()":"2288","setSaleToken(address)":"infinite","tokensSold()":"2369","updatetokenPrice(uint256)":"infinite","withdrawAllTokens()":"infinite"}},"methodIdentifiers":{"buyToken()":"a4821719","ethPriceForToken()":"c605af53","getContractInfo()":"7cc1f867","owner()":"8da5cb5b","rescueToken(address)":"4460d3cf","saletoken()":"10274fac","setSaleToken(address)":"a29f481c","tokensSold()":"518ab2a8","updatetokenPrice(uint256)":"46437626","withdrawAllTokens()":"280da6fa"}},"storageLayout":{"storage":[{"astId":792,"contract":"contracts/TokenICO.sol:TokenICO","label":"saletoken","offset":0,"slot":"0","type":"t_address"},{"astId":795,"contract":"contracts/TokenICO.sol:TokenICO","label":"ethPriceForToken","offset":0,"slot":"1","type":"t_uint256"},{"astId":797,"contract":"contracts/TokenICO.sol:TokenICO","label":"tokensSold","offset":0,"slot":"2","type":"t_uint256"}],"types":{"t_address":{"encoding":"inplace","label":"address","numberOfBytes":"20"},"t_uint256":{"encoding":"inplace","label":"uint256","numberOfBytes":"32"}}},"userdoc":{"kind":"user","methods":{},"version":1}}}}